{"contracts/Raffle.sol":{"Raffle":{"abi":[{"inputs":[{"internalType":"address","name":"vrfCoordinatorV2","type":"address"},{"internalType":"uint64","name":"subscriptionId","type":"uint64"},{"internalType":"bytes32","name":"gasLane","type":"bytes32"},{"internalType":"uint256","name":"interval","type":"uint256"},{"internalType":"uint256","name":"entrance_fee","type":"uint256"},{"internalType":"uint32","name":"callbackGasLimit","type":"uint32"}],"stateMutability":"nonpayable","type":"constructor"},{"inputs":[{"internalType":"address","name":"have","type":"address"},{"internalType":"address","name":"want","type":"address"}],"name":"OnlyCoordinatorCanFulfill","type":"error"},{"inputs":[],"name":"Raffle_StateClosed","type":"error"},{"inputs":[],"name":"Raffle__NotEnoughEthEntered","type":"error"},{"inputs":[],"name":"Raffle__TransferFailed","type":"error"},{"inputs":[],"name":"Raffle__UpkeepNotNeeded","type":"error"},{"anonymous":false,"inputs":[{"indexed":true,"internalType":"address","name":"player","type":"address"}],"name":"RaffleEnter","type":"event"},{"anonymous":false,"inputs":[{"indexed":true,"internalType":"uint256","name":"requestId","type":"uint256"}],"name":"RequestedRaffleWinner","type":"event"},{"anonymous":false,"inputs":[{"indexed":true,"internalType":"address","name":"winner","type":"address"}],"name":"Winner","type":"event"},{"inputs":[{"internalType":"bytes","name":"","type":"bytes"}],"name":"checkUpkeep","outputs":[{"internalType":"bool","name":"upkeepNeeded","type":"bool"},{"internalType":"bytes","name":"","type":"bytes"}],"stateMutability":"view","type":"function"},{"inputs":[],"name":"enterRaffle","outputs":[],"stateMutability":"payable","type":"function"},{"inputs":[],"name":"getEntranceFee","outputs":[{"internalType":"uint256","name":"","type":"uint256"}],"stateMutability":"view","type":"function"},{"inputs":[],"name":"getInterval","outputs":[{"internalType":"uint256","name":"","type":"uint256"}],"stateMutability":"view","type":"function"},{"inputs":[],"name":"getNumWords","outputs":[{"internalType":"uint256","name":"","type":"uint256"}],"stateMutability":"pure","type":"function"},{"inputs":[{"internalType":"uint256","name":"index","type":"uint256"}],"name":"getPlayer","outputs":[{"internalType":"address","name":"","type":"address"}],"stateMutability":"view","type":"function"},{"inputs":[],"name":"getRaffleState","outputs":[{"internalType":"enum Raffle.RaffleState","name":"","type":"uint8"}],"stateMutability":"view","type":"function"},{"inputs":[],"name":"latestWinner","outputs":[{"internalType":"address","name":"","type":"address"}],"stateMutability":"view","type":"function"},{"inputs":[{"internalType":"bytes","name":"","type":"bytes"}],"name":"performUpkeep","outputs":[],"stateMutability":"nonpayable","type":"function"},{"inputs":[{"internalType":"uint256","name":"requestId","type":"uint256"},{"internalType":"uint256[]","name":"randomWords","type":"uint256[]"}],"name":"rawFulfillRandomWords","outputs":[],"stateMutability":"nonpayable","type":"function"},{"inputs":[],"name":"timeStamp","outputs":[{"internalType":"uint256","name":"","type":"uint256"}],"stateMutability":"view","type":"function"}],"devdoc":{"kind":"dev","methods":{},"version":1},"evm":{"bytecode":{"linkReferences":{},"object":"6101606040523480156200001257600080fd5b506040516200173a3803806200173a8339818101604052810190620000389190620001ad565b858073ffffffffffffffffffffffffffffffffffffffff1660808173ffffffffffffffffffffffffffffffffffffffff1660601b81525050508573ffffffffffffffffffffffffffffffffffffffff1660a08173ffffffffffffffffffffffffffffffffffffffff1660601b815250508360e081815250508261012081815250508467ffffffffffffffff1660c08167ffffffffffffffff1660c01b815250508161014081815250506000600360006101000a81548160ff021916908360018111156200010a5762000109620002b5565b5b0217905550426000819055508063ffffffff166101008163ffffffff1660e01b815250505050505050506200036b565b6000815190506200014b81620002e9565b92915050565b600081519050620001628162000303565b92915050565b60008151905062000179816200031d565b92915050565b600081519050620001908162000337565b92915050565b600081519050620001a78162000351565b92915050565b60008060008060008060c08789031215620001cd57620001cc620002e4565b5b6000620001dd89828a016200013a565b9650506020620001f089828a0162000196565b95505060406200020389828a0162000151565b94505060606200021689828a0162000168565b93505060806200022989828a0162000168565b92505060a06200023c89828a016200017f565b9150509295509295509295565b6000620002568262000267565b9050919050565b6000819050919050565b600073ffffffffffffffffffffffffffffffffffffffff82169050919050565b6000819050919050565b600063ffffffff82169050919050565b600067ffffffffffffffff82169050919050565b7f4e487b7100000000000000000000000000000000000000000000000000000000600052602160045260246000fd5b600080fd5b620002f48162000249565b81146200030057600080fd5b50565b6200030e816200025d565b81146200031a57600080fd5b50565b620003288162000287565b81146200033457600080fd5b50565b620003428162000291565b81146200034e57600080fd5b50565b6200035c81620002a1565b81146200036857600080fd5b50565b60805160601c60a05160601c60c05160c01c60e0516101005160e01c6101205161014051611353620003e7600039600081816102a801526103ae01526000818161074a01526107a50152600061061e015260006105da015260006105fb0152600061059e0152600081816102ee015261034201526113536000f3fe60806040526004361061009c5760003560e01c80632cfcc539116100645780632cfcc539146101765780634585e33b1461018057806353a2c19a146101a95780636e04ff0d146101d457806391ad27b414610212578063e55ae4e81461023d5761009c565b806306ef53e0146100a157806309bc33a7146100cc5780630ab0df87146100f7578063115cbaf5146101225780631fe543e31461014d575b600080fd5b3480156100ad57600080fd5b506100b661027a565b6040516100c39190610eae565b60405180910390f35b3480156100d857600080fd5b506100e16102a4565b6040516100ee9190610f90565b60405180910390f35b34801561010357600080fd5b5061010c6102cc565b6040516101199190610f90565b60405180910390f35b34801561012e57600080fd5b506101376102d5565b6040516101449190610f75565b60405180910390f35b34801561015957600080fd5b50610174600480360381019061016f9190610d69565b6102ec565b005b61017e6103ac565b005b34801561018c57600080fd5b506101a760048036038101906101a29190610c79565b61051b565b005b3480156101b557600080fd5b506101be6106e6565b6040516101cb9190610f90565b60405180910390f35b3480156101e057600080fd5b506101fb60048036038101906101f69190610cc6565b6106f5565b604051610209929190610ef2565b60405180910390f35b34801561021e57600080fd5b506102276107a1565b6040516102349190610f90565b60405180910390f35b34801561024957600080fd5b50610264600480360381019061025f9190610d0f565b6107c9565b6040516102719190610eae565b60405180910390f35b6000600160009054906101000a900473ffffffffffffffffffffffffffffffffffffffff16905090565b60007f0000000000000000000000000000000000000000000000000000000000000000905090565b60008054905090565b6000600360009054906101000a900460ff16905090565b7f000000000000000000000000000000000000000000000000000000000000000073ffffffffffffffffffffffffffffffffffffffff163373ffffffffffffffffffffffffffffffffffffffff161461039e57337f00000000000000000000000000000000000000000000000000000000000000006040517f1cf993f4000000000000000000000000000000000000000000000000000000008152600401610395929190610ec9565b60405180910390fd5b6103a88282610811565b5050565b7f0000000000000000000000000000000000000000000000000000000000000000341015610406576040517f066d781f00000000000000000000000000000000000000000000000000000000815260040160405180910390fd5b60018081111561041957610418611233565b5b600360009054906101000a900460ff16600181111561043b5761043a611233565b5b1415610473576040517f4ce762b400000000000000000000000000000000000000000000000000000000815260040160405180910390fd5b6002339080600181540180825580915050600190039060005260206000200160009091909190916101000a81548173ffffffffffffffffffffffffffffffffffffffff021916908373ffffffffffffffffffffffffffffffffffffffff1602179055503373ffffffffffffffffffffffffffffffffffffffff167f0805e1d667bddb8a95f0f09880cf94f403fb596ce79928d9f29b74203ba284d460405160405180910390a2565b6000610535604051806020016040528060008152506106f5565b5090508061056f576040517f8e4bc81700000000000000000000000000000000000000000000000000000000815260040160405180910390fd5b6001600360006101000a81548160ff0219169083600181111561059557610594611233565b5b021790555060007f000000000000000000000000000000000000000000000000000000000000000073ffffffffffffffffffffffffffffffffffffffff16635d3b1d307f00000000000000000000000000000000000000000000000000000000000000007f000000000000000000000000000000000000000000000000000000000000000060037f000000000000000000000000000000000000000000000000000000000000000060016040518663ffffffff1660e01b815260040161065f959493929190610f22565b602060405180830381600087803b15801561067957600080fd5b505af115801561068d573d6000803e3d6000fd5b505050506040513d601f19601f820116820180604052508101906106b19190610d3c565b9050807fcd6e45c8998311cab7e9d4385596cac867e20a0587194b954fa3a731c93ce78b60405160405180910390a250505050565b6000600163ffffffff16905090565b60006060600080600181111561070e5761070d611233565b5b600360009054906101000a900460ff1660018111156107305761072f611233565b5b1490506000806002805490501190506000804711905060007f0000000000000000000000000000000000000000000000000000000000000000600054426107779190611054565b1190508380156107845750825b801561078d5750815b80156107965750805b955050505050915091565b60007f0000000000000000000000000000000000000000000000000000000000000000905090565b6000600282815481106107df576107de611262565b5b9060005260206000200160009054906101000a900473ffffffffffffffffffffffffffffffffffffffff169050919050565b60006002805490508260008151811061082d5761082c611262565b5b602002602001015161083f91906111a4565b905060006002828154811061085757610856611262565b5b9060005260206000200160009054906101000a900473ffffffffffffffffffffffffffffffffffffffff16905080600160006101000a81548173ffffffffffffffffffffffffffffffffffffffff021916908373ffffffffffffffffffffffffffffffffffffffff1602179055506000600360006101000a81548160ff021916908360018111156108eb576108ea611233565b5b0217905550600067ffffffffffffffff81111561090b5761090a611291565b5b6040519080825280602002602001820160405280156109395781602001602082028036833780820191505090505b506002908051906020019061094f929190610a44565b504260008190555060008173ffffffffffffffffffffffffffffffffffffffff164760405161097d90610e99565b60006040518083038185875af1925050503d80600081146109ba576040519150601f19603f3d011682016040523d82523d6000602084013e6109bf565b606091505b50509050806109fa576040517fa1d04b3900000000000000000000000000000000000000000000000000000000815260040160405180910390fd5b8173ffffffffffffffffffffffffffffffffffffffff167f745c90b656b4aafe296c8ca35aeacfe56cb96c90e1d320e5da643fff1051b6c060405160405180910390a25050505050565b828054828255906000526020600020908101928215610abd579160200282015b82811115610abc5782518260006101000a81548173ffffffffffffffffffffffffffffffffffffffff021916908373ffffffffffffffffffffffffffffffffffffffff16021790555091602001919060010190610a64565b5b509050610aca9190610ace565b5090565b5b80821115610ae7576000816000905550600101610acf565b5090565b6000610afe610af984610fd0565b610fab565b90508083825260208201905082856020860282011115610b2157610b206112ca565b5b60005b85811015610b515781610b378882610c4f565b845260208401935060208301925050600181019050610b24565b5050509392505050565b6000610b6e610b6984610ffc565b610fab565b905082815260208101848484011115610b8a57610b896112cf565b5b610b95848285611131565b509392505050565b600082601f830112610bb257610bb16112c5565b5b8135610bc2848260208601610aeb565b91505092915050565b60008083601f840112610be157610be06112c5565b5b8235905067ffffffffffffffff811115610bfe57610bfd6112c0565b5b602083019150836001820283011115610c1a57610c196112ca565b5b9250929050565b600082601f830112610c3657610c356112c5565b5b8135610c46848260208601610b5b565b91505092915050565b600081359050610c5e81611306565b92915050565b600081519050610c7381611306565b92915050565b60008060208385031215610c9057610c8f6112d9565b5b600083013567ffffffffffffffff811115610cae57610cad6112d4565b5b610cba85828601610bcb565b92509250509250929050565b600060208284031215610cdc57610cdb6112d9565b5b600082013567ffffffffffffffff811115610cfa57610cf96112d4565b5b610d0684828501610c21565b91505092915050565b600060208284031215610d2557610d246112d9565b5b6000610d3384828501610c4f565b91505092915050565b600060208284031215610d5257610d516112d9565b5b6000610d6084828501610c64565b91505092915050565b60008060408385031215610d8057610d7f6112d9565b5b6000610d8e85828601610c4f565b925050602083013567ffffffffffffffff811115610daf57610dae6112d4565b5b610dbb85828601610b9d565b9150509250929050565b610dce81611088565b82525050565b610ddd8161109a565b82525050565b610dec816110a6565b82525050565b6000610dfd8261102d565b610e078185611038565b9350610e17818560208601611140565b610e20816112de565b840191505092915050565b610e348161111f565b82525050565b6000610e47600083611049565b9150610e52826112ef565b600082019050919050565b610e66816110c3565b82525050565b610e75816110f1565b82525050565b610e84816110fb565b82525050565b610e938161110b565b82525050565b6000610ea482610e3a565b9150819050919050565b6000602082019050610ec36000830184610dc5565b92915050565b6000604082019050610ede6000830185610dc5565b610eeb6020830184610dc5565b9392505050565b6000604082019050610f076000830185610dd4565b8181036020830152610f198184610df2565b90509392505050565b600060a082019050610f376000830188610de3565b610f446020830187610e8a565b610f516040830186610e5d565b610f5e6060830185610e7b565b610f6b6080830184610e7b565b9695505050505050565b6000602082019050610f8a6000830184610e2b565b92915050565b6000602082019050610fa56000830184610e6c565b92915050565b6000610fb5610fc6565b9050610fc18282611173565b919050565b6000604051905090565b600067ffffffffffffffff821115610feb57610fea611291565b5b602082029050602081019050919050565b600067ffffffffffffffff82111561101757611016611291565b5b611020826112de565b9050602081019050919050565b600081519050919050565b600082825260208201905092915050565b600081905092915050565b600061105f826110f1565b915061106a836110f1565b92508282101561107d5761107c6111d5565b5b828203905092915050565b6000611093826110d1565b9050919050565b60008115159050919050565b6000819050919050565b60008190506110be826112f2565b919050565b600061ffff82169050919050565b600073ffffffffffffffffffffffffffffffffffffffff82169050919050565b6000819050919050565b600063ffffffff82169050919050565b600067ffffffffffffffff82169050919050565b600061112a826110b0565b9050919050565b82818337600083830152505050565b60005b8381101561115e578082015181840152602081019050611143565b8381111561116d576000848401525b50505050565b61117c826112de565b810181811067ffffffffffffffff8211171561119b5761119a611291565b5b80604052505050565b60006111af826110f1565b91506111ba836110f1565b9250826111ca576111c9611204565b5b828206905092915050565b7f4e487b7100000000000000000000000000000000000000000000000000000000600052601160045260246000fd5b7f4e487b7100000000000000000000000000000000000000000000000000000000600052601260045260246000fd5b7f4e487b7100000000000000000000000000000000000000000000000000000000600052602160045260246000fd5b7f4e487b7100000000000000000000000000000000000000000000000000000000600052603260045260246000fd5b7f4e487b7100000000000000000000000000000000000000000000000000000000600052604160045260246000fd5b600080fd5b600080fd5b600080fd5b600080fd5b600080fd5b600080fd5b6000601f19601f8301169050919050565b50565b6002811061130357611302611233565b5b50565b61130f816110f1565b811461131a57600080fd5b5056fea264697066735822122080b2c3a6d107902acef9d18cd0f1c198d5a8436d0cdba20afbc3487a18b9a04164736f6c63430008070033","opcodes":"PUSH2 0x160 PUSH1 0x40 MSTORE CALLVALUE DUP1 ISZERO PUSH3 0x12 JUMPI PUSH1 0x0 DUP1 REVERT JUMPDEST POP PUSH1 0x40 MLOAD PUSH3 0x173A CODESIZE SUB DUP1 PUSH3 0x173A DUP4 CODECOPY DUP2 DUP2 ADD PUSH1 0x40 MSTORE DUP2 ADD SWAP1 PUSH3 0x38 SWAP2 SWAP1 PUSH3 0x1AD JUMP JUMPDEST DUP6 DUP1 PUSH20 0xFFFFFFFFFFFFFFFFFFFFFFFFFFFFFFFFFFFFFFFF AND PUSH1 0x80 DUP2 PUSH20 0xFFFFFFFFFFFFFFFFFFFFFFFFFFFFFFFFFFFFFFFF AND PUSH1 0x60 SHL DUP2 MSTORE POP POP POP DUP6 PUSH20 0xFFFFFFFFFFFFFFFFFFFFFFFFFFFFFFFFFFFFFFFF AND PUSH1 0xA0 DUP2 PUSH20 0xFFFFFFFFFFFFFFFFFFFFFFFFFFFFFFFFFFFFFFFF AND PUSH1 0x60 SHL DUP2 MSTORE POP POP DUP4 PUSH1 0xE0 DUP2 DUP2 MSTORE POP POP DUP3 PUSH2 0x120 DUP2 DUP2 MSTORE POP POP DUP5 PUSH8 0xFFFFFFFFFFFFFFFF AND PUSH1 0xC0 DUP2 PUSH8 0xFFFFFFFFFFFFFFFF AND PUSH1 0xC0 SHL DUP2 MSTORE POP POP DUP2 PUSH2 0x140 DUP2 DUP2 MSTORE POP POP PUSH1 0x0 PUSH1 0x3 PUSH1 0x0 PUSH2 0x100 EXP DUP2 SLOAD DUP2 PUSH1 0xFF MUL NOT AND SWAP1 DUP4 PUSH1 0x1 DUP2 GT ISZERO PUSH3 0x10A JUMPI PUSH3 0x109 PUSH3 0x2B5 JUMP JUMPDEST JUMPDEST MUL OR SWAP1 SSTORE POP TIMESTAMP PUSH1 0x0 DUP2 SWAP1 SSTORE POP DUP1 PUSH4 0xFFFFFFFF AND PUSH2 0x100 DUP2 PUSH4 0xFFFFFFFF AND PUSH1 0xE0 SHL DUP2 MSTORE POP POP POP POP POP POP POP POP PUSH3 0x36B JUMP JUMPDEST PUSH1 0x0 DUP2 MLOAD SWAP1 POP PUSH3 0x14B DUP2 PUSH3 0x2E9 JUMP JUMPDEST SWAP3 SWAP2 POP POP JUMP JUMPDEST PUSH1 0x0 DUP2 MLOAD SWAP1 POP PUSH3 0x162 DUP2 PUSH3 0x303 JUMP JUMPDEST SWAP3 SWAP2 POP POP JUMP JUMPDEST PUSH1 0x0 DUP2 MLOAD SWAP1 POP PUSH3 0x179 DUP2 PUSH3 0x31D JUMP JUMPDEST SWAP3 SWAP2 POP POP JUMP JUMPDEST PUSH1 0x0 DUP2 MLOAD SWAP1 POP PUSH3 0x190 DUP2 PUSH3 0x337 JUMP JUMPDEST SWAP3 SWAP2 POP POP JUMP JUMPDEST PUSH1 0x0 DUP2 MLOAD SWAP1 POP PUSH3 0x1A7 DUP2 PUSH3 0x351 JUMP JUMPDEST SWAP3 SWAP2 POP POP JUMP JUMPDEST PUSH1 0x0 DUP1 PUSH1 0x0 DUP1 PUSH1 0x0 DUP1 PUSH1 0xC0 DUP8 DUP10 SUB SLT ISZERO PUSH3 0x1CD JUMPI PUSH3 0x1CC PUSH3 0x2E4 JUMP JUMPDEST JUMPDEST PUSH1 0x0 PUSH3 0x1DD DUP10 DUP3 DUP11 ADD PUSH3 0x13A JUMP JUMPDEST SWAP7 POP POP PUSH1 0x20 PUSH3 0x1F0 DUP10 DUP3 DUP11 ADD PUSH3 0x196 JUMP JUMPDEST SWAP6 POP POP PUSH1 0x40 PUSH3 0x203 DUP10 DUP3 DUP11 ADD PUSH3 0x151 JUMP JUMPDEST SWAP5 POP POP PUSH1 0x60 PUSH3 0x216 DUP10 DUP3 DUP11 ADD PUSH3 0x168 JUMP JUMPDEST SWAP4 POP POP PUSH1 0x80 PUSH3 0x229 DUP10 DUP3 DUP11 ADD PUSH3 0x168 JUMP JUMPDEST SWAP3 POP POP PUSH1 0xA0 PUSH3 0x23C DUP10 DUP3 DUP11 ADD PUSH3 0x17F JUMP JUMPDEST SWAP2 POP POP SWAP3 SWAP6 POP SWAP3 SWAP6 POP SWAP3 SWAP6 JUMP JUMPDEST PUSH1 0x0 PUSH3 0x256 DUP3 PUSH3 0x267 JUMP JUMPDEST SWAP1 POP SWAP2 SWAP1 POP JUMP JUMPDEST PUSH1 0x0 DUP2 SWAP1 POP SWAP2 SWAP1 POP JUMP JUMPDEST PUSH1 0x0 PUSH20 0xFFFFFFFFFFFFFFFFFFFFFFFFFFFFFFFFFFFFFFFF DUP3 AND SWAP1 POP SWAP2 SWAP1 POP JUMP JUMPDEST PUSH1 0x0 DUP2 SWAP1 POP SWAP2 SWAP1 POP JUMP JUMPDEST PUSH1 0x0 PUSH4 0xFFFFFFFF DUP3 AND SWAP1 POP SWAP2 SWAP1 POP JUMP JUMPDEST PUSH1 0x0 PUSH8 0xFFFFFFFFFFFFFFFF DUP3 AND SWAP1 POP SWAP2 SWAP1 POP JUMP JUMPDEST PUSH32 0x4E487B7100000000000000000000000000000000000000000000000000000000 PUSH1 0x0 MSTORE PUSH1 0x21 PUSH1 0x4 MSTORE PUSH1 0x24 PUSH1 0x0 REVERT JUMPDEST PUSH1 0x0 DUP1 REVERT JUMPDEST PUSH3 0x2F4 DUP2 PUSH3 0x249 JUMP JUMPDEST DUP2 EQ PUSH3 0x300 JUMPI PUSH1 0x0 DUP1 REVERT JUMPDEST POP JUMP JUMPDEST PUSH3 0x30E DUP2 PUSH3 0x25D JUMP JUMPDEST DUP2 EQ PUSH3 0x31A JUMPI PUSH1 0x0 DUP1 REVERT JUMPDEST POP JUMP JUMPDEST PUSH3 0x328 DUP2 PUSH3 0x287 JUMP JUMPDEST DUP2 EQ PUSH3 0x334 JUMPI PUSH1 0x0 DUP1 REVERT JUMPDEST POP JUMP JUMPDEST PUSH3 0x342 DUP2 PUSH3 0x291 JUMP JUMPDEST DUP2 EQ PUSH3 0x34E JUMPI PUSH1 0x0 DUP1 REVERT JUMPDEST POP JUMP JUMPDEST PUSH3 0x35C DUP2 PUSH3 0x2A1 JUMP JUMPDEST DUP2 EQ PUSH3 0x368 JUMPI PUSH1 0x0 DUP1 REVERT JUMPDEST POP JUMP JUMPDEST PUSH1 0x80 MLOAD PUSH1 0x60 SHR PUSH1 0xA0 MLOAD PUSH1 0x60 SHR PUSH1 0xC0 MLOAD PUSH1 0xC0 SHR PUSH1 0xE0 MLOAD PUSH2 0x100 MLOAD PUSH1 0xE0 SHR PUSH2 0x120 MLOAD PUSH2 0x140 MLOAD PUSH2 0x1353 PUSH3 0x3E7 PUSH1 0x0 CODECOPY PUSH1 0x0 DUP2 DUP2 PUSH2 0x2A8 ADD MSTORE PUSH2 0x3AE ADD MSTORE PUSH1 0x0 DUP2 DUP2 PUSH2 0x74A ADD MSTORE PUSH2 0x7A5 ADD MSTORE PUSH1 0x0 PUSH2 0x61E ADD MSTORE PUSH1 0x0 PUSH2 0x5DA ADD MSTORE PUSH1 0x0 PUSH2 0x5FB ADD MSTORE PUSH1 0x0 PUSH2 0x59E ADD MSTORE PUSH1 0x0 DUP2 DUP2 PUSH2 0x2EE ADD MSTORE PUSH2 0x342 ADD MSTORE PUSH2 0x1353 PUSH1 0x0 RETURN INVALID PUSH1 0x80 PUSH1 0x40 MSTORE PUSH1 0x4 CALLDATASIZE LT PUSH2 0x9C JUMPI PUSH1 0x0 CALLDATALOAD PUSH1 0xE0 SHR DUP1 PUSH4 0x2CFCC539 GT PUSH2 0x64 JUMPI DUP1 PUSH4 0x2CFCC539 EQ PUSH2 0x176 JUMPI DUP1 PUSH4 0x4585E33B EQ PUSH2 0x180 JUMPI DUP1 PUSH4 0x53A2C19A EQ PUSH2 0x1A9 JUMPI DUP1 PUSH4 0x6E04FF0D EQ PUSH2 0x1D4 JUMPI DUP1 PUSH4 0x91AD27B4 EQ PUSH2 0x212 JUMPI DUP1 PUSH4 0xE55AE4E8 EQ PUSH2 0x23D JUMPI PUSH2 0x9C JUMP JUMPDEST DUP1 PUSH4 0x6EF53E0 EQ PUSH2 0xA1 JUMPI DUP1 PUSH4 0x9BC33A7 EQ PUSH2 0xCC JUMPI DUP1 PUSH4 0xAB0DF87 EQ PUSH2 0xF7 JUMPI DUP1 PUSH4 0x115CBAF5 EQ PUSH2 0x122 JUMPI DUP1 PUSH4 0x1FE543E3 EQ PUSH2 0x14D JUMPI JUMPDEST PUSH1 0x0 DUP1 REVERT JUMPDEST CALLVALUE DUP1 ISZERO PUSH2 0xAD JUMPI PUSH1 0x0 DUP1 REVERT JUMPDEST POP PUSH2 0xB6 PUSH2 0x27A JUMP JUMPDEST PUSH1 0x40 MLOAD PUSH2 0xC3 SWAP2 SWAP1 PUSH2 0xEAE JUMP JUMPDEST PUSH1 0x40 MLOAD DUP1 SWAP2 SUB SWAP1 RETURN JUMPDEST CALLVALUE DUP1 ISZERO PUSH2 0xD8 JUMPI PUSH1 0x0 DUP1 REVERT JUMPDEST POP PUSH2 0xE1 PUSH2 0x2A4 JUMP JUMPDEST PUSH1 0x40 MLOAD PUSH2 0xEE SWAP2 SWAP1 PUSH2 0xF90 JUMP JUMPDEST PUSH1 0x40 MLOAD DUP1 SWAP2 SUB SWAP1 RETURN JUMPDEST CALLVALUE DUP1 ISZERO PUSH2 0x103 JUMPI PUSH1 0x0 DUP1 REVERT JUMPDEST POP PUSH2 0x10C PUSH2 0x2CC JUMP JUMPDEST PUSH1 0x40 MLOAD PUSH2 0x119 SWAP2 SWAP1 PUSH2 0xF90 JUMP JUMPDEST PUSH1 0x40 MLOAD DUP1 SWAP2 SUB SWAP1 RETURN JUMPDEST CALLVALUE DUP1 ISZERO PUSH2 0x12E JUMPI PUSH1 0x0 DUP1 REVERT JUMPDEST POP PUSH2 0x137 PUSH2 0x2D5 JUMP JUMPDEST PUSH1 0x40 MLOAD PUSH2 0x144 SWAP2 SWAP1 PUSH2 0xF75 JUMP JUMPDEST PUSH1 0x40 MLOAD DUP1 SWAP2 SUB SWAP1 RETURN JUMPDEST CALLVALUE DUP1 ISZERO PUSH2 0x159 JUMPI PUSH1 0x0 DUP1 REVERT JUMPDEST POP PUSH2 0x174 PUSH1 0x4 DUP1 CALLDATASIZE SUB DUP2 ADD SWAP1 PUSH2 0x16F SWAP2 SWAP1 PUSH2 0xD69 JUMP JUMPDEST PUSH2 0x2EC JUMP JUMPDEST STOP JUMPDEST PUSH2 0x17E PUSH2 0x3AC JUMP JUMPDEST STOP JUMPDEST CALLVALUE DUP1 ISZERO PUSH2 0x18C JUMPI PUSH1 0x0 DUP1 REVERT JUMPDEST POP PUSH2 0x1A7 PUSH1 0x4 DUP1 CALLDATASIZE SUB DUP2 ADD SWAP1 PUSH2 0x1A2 SWAP2 SWAP1 PUSH2 0xC79 JUMP JUMPDEST PUSH2 0x51B JUMP JUMPDEST STOP JUMPDEST CALLVALUE DUP1 ISZERO PUSH2 0x1B5 JUMPI PUSH1 0x0 DUP1 REVERT JUMPDEST POP PUSH2 0x1BE PUSH2 0x6E6 JUMP JUMPDEST PUSH1 0x40 MLOAD PUSH2 0x1CB SWAP2 SWAP1 PUSH2 0xF90 JUMP JUMPDEST PUSH1 0x40 MLOAD DUP1 SWAP2 SUB SWAP1 RETURN JUMPDEST CALLVALUE DUP1 ISZERO PUSH2 0x1E0 JUMPI PUSH1 0x0 DUP1 REVERT JUMPDEST POP PUSH2 0x1FB PUSH1 0x4 DUP1 CALLDATASIZE SUB DUP2 ADD SWAP1 PUSH2 0x1F6 SWAP2 SWAP1 PUSH2 0xCC6 JUMP JUMPDEST PUSH2 0x6F5 JUMP JUMPDEST PUSH1 0x40 MLOAD PUSH2 0x209 SWAP3 SWAP2 SWAP1 PUSH2 0xEF2 JUMP JUMPDEST PUSH1 0x40 MLOAD DUP1 SWAP2 SUB SWAP1 RETURN JUMPDEST CALLVALUE DUP1 ISZERO PUSH2 0x21E JUMPI PUSH1 0x0 DUP1 REVERT JUMPDEST POP PUSH2 0x227 PUSH2 0x7A1 JUMP JUMPDEST PUSH1 0x40 MLOAD PUSH2 0x234 SWAP2 SWAP1 PUSH2 0xF90 JUMP JUMPDEST PUSH1 0x40 MLOAD DUP1 SWAP2 SUB SWAP1 RETURN JUMPDEST CALLVALUE DUP1 ISZERO PUSH2 0x249 JUMPI PUSH1 0x0 DUP1 REVERT JUMPDEST POP PUSH2 0x264 PUSH1 0x4 DUP1 CALLDATASIZE SUB DUP2 ADD SWAP1 PUSH2 0x25F SWAP2 SWAP1 PUSH2 0xD0F JUMP JUMPDEST PUSH2 0x7C9 JUMP JUMPDEST PUSH1 0x40 MLOAD PUSH2 0x271 SWAP2 SWAP1 PUSH2 0xEAE JUMP JUMPDEST PUSH1 0x40 MLOAD DUP1 SWAP2 SUB SWAP1 RETURN JUMPDEST PUSH1 0x0 PUSH1 0x1 PUSH1 0x0 SWAP1 SLOAD SWAP1 PUSH2 0x100 EXP SWAP1 DIV PUSH20 0xFFFFFFFFFFFFFFFFFFFFFFFFFFFFFFFFFFFFFFFF AND SWAP1 POP SWAP1 JUMP JUMPDEST PUSH1 0x0 PUSH32 0x0 SWAP1 POP SWAP1 JUMP JUMPDEST PUSH1 0x0 DUP1 SLOAD SWAP1 POP SWAP1 JUMP JUMPDEST PUSH1 0x0 PUSH1 0x3 PUSH1 0x0 SWAP1 SLOAD SWAP1 PUSH2 0x100 EXP SWAP1 DIV PUSH1 0xFF AND SWAP1 POP SWAP1 JUMP JUMPDEST PUSH32 0x0 PUSH20 0xFFFFFFFFFFFFFFFFFFFFFFFFFFFFFFFFFFFFFFFF AND CALLER PUSH20 0xFFFFFFFFFFFFFFFFFFFFFFFFFFFFFFFFFFFFFFFF AND EQ PUSH2 0x39E JUMPI CALLER PUSH32 0x0 PUSH1 0x40 MLOAD PUSH32 0x1CF993F400000000000000000000000000000000000000000000000000000000 DUP2 MSTORE PUSH1 0x4 ADD PUSH2 0x395 SWAP3 SWAP2 SWAP1 PUSH2 0xEC9 JUMP JUMPDEST PUSH1 0x40 MLOAD DUP1 SWAP2 SUB SWAP1 REVERT JUMPDEST PUSH2 0x3A8 DUP3 DUP3 PUSH2 0x811 JUMP JUMPDEST POP POP JUMP JUMPDEST PUSH32 0x0 CALLVALUE LT ISZERO PUSH2 0x406 JUMPI PUSH1 0x40 MLOAD PUSH32 0x66D781F00000000000000000000000000000000000000000000000000000000 DUP2 MSTORE PUSH1 0x4 ADD PUSH1 0x40 MLOAD DUP1 SWAP2 SUB SWAP1 REVERT JUMPDEST PUSH1 0x1 DUP1 DUP2 GT ISZERO PUSH2 0x419 JUMPI PUSH2 0x418 PUSH2 0x1233 JUMP JUMPDEST JUMPDEST PUSH1 0x3 PUSH1 0x0 SWAP1 SLOAD SWAP1 PUSH2 0x100 EXP SWAP1 DIV PUSH1 0xFF AND PUSH1 0x1 DUP2 GT ISZERO PUSH2 0x43B JUMPI PUSH2 0x43A PUSH2 0x1233 JUMP JUMPDEST JUMPDEST EQ ISZERO PUSH2 0x473 JUMPI PUSH1 0x40 MLOAD PUSH32 0x4CE762B400000000000000000000000000000000000000000000000000000000 DUP2 MSTORE PUSH1 0x4 ADD PUSH1 0x40 MLOAD DUP1 SWAP2 SUB SWAP1 REVERT JUMPDEST PUSH1 0x2 CALLER SWAP1 DUP1 PUSH1 0x1 DUP2 SLOAD ADD DUP1 DUP3 SSTORE DUP1 SWAP2 POP POP PUSH1 0x1 SWAP1 SUB SWAP1 PUSH1 0x0 MSTORE PUSH1 0x20 PUSH1 0x0 KECCAK256 ADD PUSH1 0x0 SWAP1 SWAP2 SWAP1 SWAP2 SWAP1 SWAP2 PUSH2 0x100 EXP DUP2 SLOAD DUP2 PUSH20 0xFFFFFFFFFFFFFFFFFFFFFFFFFFFFFFFFFFFFFFFF MUL NOT AND SWAP1 DUP4 PUSH20 0xFFFFFFFFFFFFFFFFFFFFFFFFFFFFFFFFFFFFFFFF AND MUL OR SWAP1 SSTORE POP CALLER PUSH20 0xFFFFFFFFFFFFFFFFFFFFFFFFFFFFFFFFFFFFFFFF AND PUSH32 0x805E1D667BDDB8A95F0F09880CF94F403FB596CE79928D9F29B74203BA284D4 PUSH1 0x40 MLOAD PUSH1 0x40 MLOAD DUP1 SWAP2 SUB SWAP1 LOG2 JUMP JUMPDEST PUSH1 0x0 PUSH2 0x535 PUSH1 0x40 MLOAD DUP1 PUSH1 0x20 ADD PUSH1 0x40 MSTORE DUP1 PUSH1 0x0 DUP2 MSTORE POP PUSH2 0x6F5 JUMP JUMPDEST POP SWAP1 POP DUP1 PUSH2 0x56F JUMPI PUSH1 0x40 MLOAD PUSH32 0x8E4BC81700000000000000000000000000000000000000000000000000000000 DUP2 MSTORE PUSH1 0x4 ADD PUSH1 0x40 MLOAD DUP1 SWAP2 SUB SWAP1 REVERT JUMPDEST PUSH1 0x1 PUSH1 0x3 PUSH1 0x0 PUSH2 0x100 EXP DUP2 SLOAD DUP2 PUSH1 0xFF MUL NOT AND SWAP1 DUP4 PUSH1 0x1 DUP2 GT ISZERO PUSH2 0x595 JUMPI PUSH2 0x594 PUSH2 0x1233 JUMP JUMPDEST JUMPDEST MUL OR SWAP1 SSTORE POP PUSH1 0x0 PUSH32 0x0 PUSH20 0xFFFFFFFFFFFFFFFFFFFFFFFFFFFFFFFFFFFFFFFF AND PUSH4 0x5D3B1D30 PUSH32 0x0 PUSH32 0x0 PUSH1 0x3 PUSH32 0x0 PUSH1 0x1 PUSH1 0x40 MLOAD DUP7 PUSH4 0xFFFFFFFF AND PUSH1 0xE0 SHL DUP2 MSTORE PUSH1 0x4 ADD PUSH2 0x65F SWAP6 SWAP5 SWAP4 SWAP3 SWAP2 SWAP1 PUSH2 0xF22 JUMP JUMPDEST PUSH1 0x20 PUSH1 0x40 MLOAD DUP1 DUP4 SUB DUP2 PUSH1 0x0 DUP8 DUP1 EXTCODESIZE ISZERO DUP1 ISZERO PUSH2 0x679 JUMPI PUSH1 0x0 DUP1 REVERT JUMPDEST POP GAS CALL ISZERO DUP1 ISZERO PUSH2 0x68D JUMPI RETURNDATASIZE PUSH1 0x0 DUP1 RETURNDATACOPY RETURNDATASIZE PUSH1 0x0 REVERT JUMPDEST POP POP POP POP PUSH1 0x40 MLOAD RETURNDATASIZE PUSH1 0x1F NOT PUSH1 0x1F DUP3 ADD AND DUP3 ADD DUP1 PUSH1 0x40 MSTORE POP DUP2 ADD SWAP1 PUSH2 0x6B1 SWAP2 SWAP1 PUSH2 0xD3C JUMP JUMPDEST SWAP1 POP DUP1 PUSH32 0xCD6E45C8998311CAB7E9D4385596CAC867E20A0587194B954FA3A731C93CE78B PUSH1 0x40 MLOAD PUSH1 0x40 MLOAD DUP1 SWAP2 SUB SWAP1 LOG2 POP POP POP POP JUMP JUMPDEST PUSH1 0x0 PUSH1 0x1 PUSH4 0xFFFFFFFF AND SWAP1 POP SWAP1 JUMP JUMPDEST PUSH1 0x0 PUSH1 0x60 PUSH1 0x0 DUP1 PUSH1 0x1 DUP2 GT ISZERO PUSH2 0x70E JUMPI PUSH2 0x70D PUSH2 0x1233 JUMP JUMPDEST JUMPDEST PUSH1 0x3 PUSH1 0x0 SWAP1 SLOAD SWAP1 PUSH2 0x100 EXP SWAP1 DIV PUSH1 0xFF AND PUSH1 0x1 DUP2 GT ISZERO PUSH2 0x730 JUMPI PUSH2 0x72F PUSH2 0x1233 JUMP JUMPDEST JUMPDEST EQ SWAP1 POP PUSH1 0x0 DUP1 PUSH1 0x2 DUP1 SLOAD SWAP1 POP GT SWAP1 POP PUSH1 0x0 DUP1 SELFBALANCE GT SWAP1 POP PUSH1 0x0 PUSH32 0x0 PUSH1 0x0 SLOAD TIMESTAMP PUSH2 0x777 SWAP2 SWAP1 PUSH2 0x1054 JUMP JUMPDEST GT SWAP1 POP DUP4 DUP1 ISZERO PUSH2 0x784 JUMPI POP DUP3 JUMPDEST DUP1 ISZERO PUSH2 0x78D JUMPI POP DUP2 JUMPDEST DUP1 ISZERO PUSH2 0x796 JUMPI POP DUP1 JUMPDEST SWAP6 POP POP POP POP POP SWAP2 POP SWAP2 JUMP JUMPDEST PUSH1 0x0 PUSH32 0x0 SWAP1 POP SWAP1 JUMP JUMPDEST PUSH1 0x0 PUSH1 0x2 DUP3 DUP2 SLOAD DUP2 LT PUSH2 0x7DF JUMPI PUSH2 0x7DE PUSH2 0x1262 JUMP JUMPDEST JUMPDEST SWAP1 PUSH1 0x0 MSTORE PUSH1 0x20 PUSH1 0x0 KECCAK256 ADD PUSH1 0x0 SWAP1 SLOAD SWAP1 PUSH2 0x100 EXP SWAP1 DIV PUSH20 0xFFFFFFFFFFFFFFFFFFFFFFFFFFFFFFFFFFFFFFFF AND SWAP1 POP SWAP2 SWAP1 POP JUMP JUMPDEST PUSH1 0x0 PUSH1 0x2 DUP1 SLOAD SWAP1 POP DUP3 PUSH1 0x0 DUP2 MLOAD DUP2 LT PUSH2 0x82D JUMPI PUSH2 0x82C PUSH2 0x1262 JUMP JUMPDEST JUMPDEST PUSH1 0x20 MUL PUSH1 0x20 ADD ADD MLOAD PUSH2 0x83F SWAP2 SWAP1 PUSH2 0x11A4 JUMP JUMPDEST SWAP1 POP PUSH1 0x0 PUSH1 0x2 DUP3 DUP2 SLOAD DUP2 LT PUSH2 0x857 JUMPI PUSH2 0x856 PUSH2 0x1262 JUMP JUMPDEST JUMPDEST SWAP1 PUSH1 0x0 MSTORE PUSH1 0x20 PUSH1 0x0 KECCAK256 ADD PUSH1 0x0 SWAP1 SLOAD SWAP1 PUSH2 0x100 EXP SWAP1 DIV PUSH20 0xFFFFFFFFFFFFFFFFFFFFFFFFFFFFFFFFFFFFFFFF AND SWAP1 POP DUP1 PUSH1 0x1 PUSH1 0x0 PUSH2 0x100 EXP DUP2 SLOAD DUP2 PUSH20 0xFFFFFFFFFFFFFFFFFFFFFFFFFFFFFFFFFFFFFFFF MUL NOT AND SWAP1 DUP4 PUSH20 0xFFFFFFFFFFFFFFFFFFFFFFFFFFFFFFFFFFFFFFFF AND MUL OR SWAP1 SSTORE POP PUSH1 0x0 PUSH1 0x3 PUSH1 0x0 PUSH2 0x100 EXP DUP2 SLOAD DUP2 PUSH1 0xFF MUL NOT AND SWAP1 DUP4 PUSH1 0x1 DUP2 GT ISZERO PUSH2 0x8EB JUMPI PUSH2 0x8EA PUSH2 0x1233 JUMP JUMPDEST JUMPDEST MUL OR SWAP1 SSTORE POP PUSH1 0x0 PUSH8 0xFFFFFFFFFFFFFFFF DUP2 GT ISZERO PUSH2 0x90B JUMPI PUSH2 0x90A PUSH2 0x1291 JUMP JUMPDEST JUMPDEST PUSH1 0x40 MLOAD SWAP1 DUP1 DUP3 MSTORE DUP1 PUSH1 0x20 MUL PUSH1 0x20 ADD DUP3 ADD PUSH1 0x40 MSTORE DUP1 ISZERO PUSH2 0x939 JUMPI DUP2 PUSH1 0x20 ADD PUSH1 0x20 DUP3 MUL DUP1 CALLDATASIZE DUP4 CALLDATACOPY DUP1 DUP3 ADD SWAP2 POP POP SWAP1 POP JUMPDEST POP PUSH1 0x2 SWAP1 DUP1 MLOAD SWAP1 PUSH1 0x20 ADD SWAP1 PUSH2 0x94F SWAP3 SWAP2 SWAP1 PUSH2 0xA44 JUMP JUMPDEST POP TIMESTAMP PUSH1 0x0 DUP2 SWAP1 SSTORE POP PUSH1 0x0 DUP2 PUSH20 0xFFFFFFFFFFFFFFFFFFFFFFFFFFFFFFFFFFFFFFFF AND SELFBALANCE PUSH1 0x40 MLOAD PUSH2 0x97D SWAP1 PUSH2 0xE99 JUMP JUMPDEST PUSH1 0x0 PUSH1 0x40 MLOAD DUP1 DUP4 SUB DUP2 DUP6 DUP8 GAS CALL SWAP3 POP POP POP RETURNDATASIZE DUP1 PUSH1 0x0 DUP2 EQ PUSH2 0x9BA JUMPI PUSH1 0x40 MLOAD SWAP2 POP PUSH1 0x1F NOT PUSH1 0x3F RETURNDATASIZE ADD AND DUP3 ADD PUSH1 0x40 MSTORE RETURNDATASIZE DUP3 MSTORE RETURNDATASIZE PUSH1 0x0 PUSH1 0x20 DUP5 ADD RETURNDATACOPY PUSH2 0x9BF JUMP JUMPDEST PUSH1 0x60 SWAP2 POP JUMPDEST POP POP SWAP1 POP DUP1 PUSH2 0x9FA JUMPI PUSH1 0x40 MLOAD PUSH32 0xA1D04B3900000000000000000000000000000000000000000000000000000000 DUP2 MSTORE PUSH1 0x4 ADD PUSH1 0x40 MLOAD DUP1 SWAP2 SUB SWAP1 REVERT JUMPDEST DUP2 PUSH20 0xFFFFFFFFFFFFFFFFFFFFFFFFFFFFFFFFFFFFFFFF AND PUSH32 0x745C90B656B4AAFE296C8CA35AEACFE56CB96C90E1D320E5DA643FFF1051B6C0 PUSH1 0x40 MLOAD PUSH1 0x40 MLOAD DUP1 SWAP2 SUB SWAP1 LOG2 POP POP POP POP POP JUMP JUMPDEST DUP3 DUP1 SLOAD DUP3 DUP3 SSTORE SWAP1 PUSH1 0x0 MSTORE PUSH1 0x20 PUSH1 0x0 KECCAK256 SWAP1 DUP2 ADD SWAP3 DUP3 ISZERO PUSH2 0xABD JUMPI SWAP2 PUSH1 0x20 MUL DUP3 ADD JUMPDEST DUP3 DUP2 GT ISZERO PUSH2 0xABC JUMPI DUP3 MLOAD DUP3 PUSH1 0x0 PUSH2 0x100 EXP DUP2 SLOAD DUP2 PUSH20 0xFFFFFFFFFFFFFFFFFFFFFFFFFFFFFFFFFFFFFFFF MUL NOT AND SWAP1 DUP4 PUSH20 0xFFFFFFFFFFFFFFFFFFFFFFFFFFFFFFFFFFFFFFFF AND MUL OR SWAP1 SSTORE POP SWAP2 PUSH1 0x20 ADD SWAP2 SWAP1 PUSH1 0x1 ADD SWAP1 PUSH2 0xA64 JUMP JUMPDEST JUMPDEST POP SWAP1 POP PUSH2 0xACA SWAP2 SWAP1 PUSH2 0xACE JUMP JUMPDEST POP SWAP1 JUMP JUMPDEST JUMPDEST DUP1 DUP3 GT ISZERO PUSH2 0xAE7 JUMPI PUSH1 0x0 DUP2 PUSH1 0x0 SWAP1 SSTORE POP PUSH1 0x1 ADD PUSH2 0xACF JUMP JUMPDEST POP SWAP1 JUMP JUMPDEST PUSH1 0x0 PUSH2 0xAFE PUSH2 0xAF9 DUP5 PUSH2 0xFD0 JUMP JUMPDEST PUSH2 0xFAB JUMP JUMPDEST SWAP1 POP DUP1 DUP4 DUP3 MSTORE PUSH1 0x20 DUP3 ADD SWAP1 POP DUP3 DUP6 PUSH1 0x20 DUP7 MUL DUP3 ADD GT ISZERO PUSH2 0xB21 JUMPI PUSH2 0xB20 PUSH2 0x12CA JUMP JUMPDEST JUMPDEST PUSH1 0x0 JUMPDEST DUP6 DUP2 LT ISZERO PUSH2 0xB51 JUMPI DUP2 PUSH2 0xB37 DUP9 DUP3 PUSH2 0xC4F JUMP JUMPDEST DUP5 MSTORE PUSH1 0x20 DUP5 ADD SWAP4 POP PUSH1 0x20 DUP4 ADD SWAP3 POP POP PUSH1 0x1 DUP2 ADD SWAP1 POP PUSH2 0xB24 JUMP JUMPDEST POP POP POP SWAP4 SWAP3 POP POP POP JUMP JUMPDEST PUSH1 0x0 PUSH2 0xB6E PUSH2 0xB69 DUP5 PUSH2 0xFFC JUMP JUMPDEST PUSH2 0xFAB JUMP JUMPDEST SWAP1 POP DUP3 DUP2 MSTORE PUSH1 0x20 DUP2 ADD DUP5 DUP5 DUP5 ADD GT ISZERO PUSH2 0xB8A JUMPI PUSH2 0xB89 PUSH2 0x12CF JUMP JUMPDEST JUMPDEST PUSH2 0xB95 DUP5 DUP3 DUP6 PUSH2 0x1131 JUMP JUMPDEST POP SWAP4 SWAP3 POP POP POP JUMP JUMPDEST PUSH1 0x0 DUP3 PUSH1 0x1F DUP4 ADD SLT PUSH2 0xBB2 JUMPI PUSH2 0xBB1 PUSH2 0x12C5 JUMP JUMPDEST JUMPDEST DUP2 CALLDATALOAD PUSH2 0xBC2 DUP5 DUP3 PUSH1 0x20 DUP7 ADD PUSH2 0xAEB JUMP JUMPDEST SWAP2 POP POP SWAP3 SWAP2 POP POP JUMP JUMPDEST PUSH1 0x0 DUP1 DUP4 PUSH1 0x1F DUP5 ADD SLT PUSH2 0xBE1 JUMPI PUSH2 0xBE0 PUSH2 0x12C5 JUMP JUMPDEST JUMPDEST DUP3 CALLDATALOAD SWAP1 POP PUSH8 0xFFFFFFFFFFFFFFFF DUP2 GT ISZERO PUSH2 0xBFE JUMPI PUSH2 0xBFD PUSH2 0x12C0 JUMP JUMPDEST JUMPDEST PUSH1 0x20 DUP4 ADD SWAP2 POP DUP4 PUSH1 0x1 DUP3 MUL DUP4 ADD GT ISZERO PUSH2 0xC1A JUMPI PUSH2 0xC19 PUSH2 0x12CA JUMP JUMPDEST JUMPDEST SWAP3 POP SWAP3 SWAP1 POP JUMP JUMPDEST PUSH1 0x0 DUP3 PUSH1 0x1F DUP4 ADD SLT PUSH2 0xC36 JUMPI PUSH2 0xC35 PUSH2 0x12C5 JUMP JUMPDEST JUMPDEST DUP2 CALLDATALOAD PUSH2 0xC46 DUP5 DUP3 PUSH1 0x20 DUP7 ADD PUSH2 0xB5B JUMP JUMPDEST SWAP2 POP POP SWAP3 SWAP2 POP POP JUMP JUMPDEST PUSH1 0x0 DUP2 CALLDATALOAD SWAP1 POP PUSH2 0xC5E DUP2 PUSH2 0x1306 JUMP JUMPDEST SWAP3 SWAP2 POP POP JUMP JUMPDEST PUSH1 0x0 DUP2 MLOAD SWAP1 POP PUSH2 0xC73 DUP2 PUSH2 0x1306 JUMP JUMPDEST SWAP3 SWAP2 POP POP JUMP JUMPDEST PUSH1 0x0 DUP1 PUSH1 0x20 DUP4 DUP6 SUB SLT ISZERO PUSH2 0xC90 JUMPI PUSH2 0xC8F PUSH2 0x12D9 JUMP JUMPDEST JUMPDEST PUSH1 0x0 DUP4 ADD CALLDATALOAD PUSH8 0xFFFFFFFFFFFFFFFF DUP2 GT ISZERO PUSH2 0xCAE JUMPI PUSH2 0xCAD PUSH2 0x12D4 JUMP JUMPDEST JUMPDEST PUSH2 0xCBA DUP6 DUP3 DUP7 ADD PUSH2 0xBCB JUMP JUMPDEST SWAP3 POP SWAP3 POP POP SWAP3 POP SWAP3 SWAP1 POP JUMP JUMPDEST PUSH1 0x0 PUSH1 0x20 DUP3 DUP5 SUB SLT ISZERO PUSH2 0xCDC JUMPI PUSH2 0xCDB PUSH2 0x12D9 JUMP JUMPDEST JUMPDEST PUSH1 0x0 DUP3 ADD CALLDATALOAD PUSH8 0xFFFFFFFFFFFFFFFF DUP2 GT ISZERO PUSH2 0xCFA JUMPI PUSH2 0xCF9 PUSH2 0x12D4 JUMP JUMPDEST JUMPDEST PUSH2 0xD06 DUP5 DUP3 DUP6 ADD PUSH2 0xC21 JUMP JUMPDEST SWAP2 POP POP SWAP3 SWAP2 POP POP JUMP JUMPDEST PUSH1 0x0 PUSH1 0x20 DUP3 DUP5 SUB SLT ISZERO PUSH2 0xD25 JUMPI PUSH2 0xD24 PUSH2 0x12D9 JUMP JUMPDEST JUMPDEST PUSH1 0x0 PUSH2 0xD33 DUP5 DUP3 DUP6 ADD PUSH2 0xC4F JUMP JUMPDEST SWAP2 POP POP SWAP3 SWAP2 POP POP JUMP JUMPDEST PUSH1 0x0 PUSH1 0x20 DUP3 DUP5 SUB SLT ISZERO PUSH2 0xD52 JUMPI PUSH2 0xD51 PUSH2 0x12D9 JUMP JUMPDEST JUMPDEST PUSH1 0x0 PUSH2 0xD60 DUP5 DUP3 DUP6 ADD PUSH2 0xC64 JUMP JUMPDEST SWAP2 POP POP SWAP3 SWAP2 POP POP JUMP JUMPDEST PUSH1 0x0 DUP1 PUSH1 0x40 DUP4 DUP6 SUB SLT ISZERO PUSH2 0xD80 JUMPI PUSH2 0xD7F PUSH2 0x12D9 JUMP JUMPDEST JUMPDEST PUSH1 0x0 PUSH2 0xD8E DUP6 DUP3 DUP7 ADD PUSH2 0xC4F JUMP JUMPDEST SWAP3 POP POP PUSH1 0x20 DUP4 ADD CALLDATALOAD PUSH8 0xFFFFFFFFFFFFFFFF DUP2 GT ISZERO PUSH2 0xDAF JUMPI PUSH2 0xDAE PUSH2 0x12D4 JUMP JUMPDEST JUMPDEST PUSH2 0xDBB DUP6 DUP3 DUP7 ADD PUSH2 0xB9D JUMP JUMPDEST SWAP2 POP POP SWAP3 POP SWAP3 SWAP1 POP JUMP JUMPDEST PUSH2 0xDCE DUP2 PUSH2 0x1088 JUMP JUMPDEST DUP3 MSTORE POP POP JUMP JUMPDEST PUSH2 0xDDD DUP2 PUSH2 0x109A JUMP JUMPDEST DUP3 MSTORE POP POP JUMP JUMPDEST PUSH2 0xDEC DUP2 PUSH2 0x10A6 JUMP JUMPDEST DUP3 MSTORE POP POP JUMP JUMPDEST PUSH1 0x0 PUSH2 0xDFD DUP3 PUSH2 0x102D JUMP JUMPDEST PUSH2 0xE07 DUP2 DUP6 PUSH2 0x1038 JUMP JUMPDEST SWAP4 POP PUSH2 0xE17 DUP2 DUP6 PUSH1 0x20 DUP7 ADD PUSH2 0x1140 JUMP JUMPDEST PUSH2 0xE20 DUP2 PUSH2 0x12DE JUMP JUMPDEST DUP5 ADD SWAP2 POP POP SWAP3 SWAP2 POP POP JUMP JUMPDEST PUSH2 0xE34 DUP2 PUSH2 0x111F JUMP JUMPDEST DUP3 MSTORE POP POP JUMP JUMPDEST PUSH1 0x0 PUSH2 0xE47 PUSH1 0x0 DUP4 PUSH2 0x1049 JUMP JUMPDEST SWAP2 POP PUSH2 0xE52 DUP3 PUSH2 0x12EF JUMP JUMPDEST PUSH1 0x0 DUP3 ADD SWAP1 POP SWAP2 SWAP1 POP JUMP JUMPDEST PUSH2 0xE66 DUP2 PUSH2 0x10C3 JUMP JUMPDEST DUP3 MSTORE POP POP JUMP JUMPDEST PUSH2 0xE75 DUP2 PUSH2 0x10F1 JUMP JUMPDEST DUP3 MSTORE POP POP JUMP JUMPDEST PUSH2 0xE84 DUP2 PUSH2 0x10FB JUMP JUMPDEST DUP3 MSTORE POP POP JUMP JUMPDEST PUSH2 0xE93 DUP2 PUSH2 0x110B JUMP JUMPDEST DUP3 MSTORE POP POP JUMP JUMPDEST PUSH1 0x0 PUSH2 0xEA4 DUP3 PUSH2 0xE3A JUMP JUMPDEST SWAP2 POP DUP2 SWAP1 POP SWAP2 SWAP1 POP JUMP JUMPDEST PUSH1 0x0 PUSH1 0x20 DUP3 ADD SWAP1 POP PUSH2 0xEC3 PUSH1 0x0 DUP4 ADD DUP5 PUSH2 0xDC5 JUMP JUMPDEST SWAP3 SWAP2 POP POP JUMP JUMPDEST PUSH1 0x0 PUSH1 0x40 DUP3 ADD SWAP1 POP PUSH2 0xEDE PUSH1 0x0 DUP4 ADD DUP6 PUSH2 0xDC5 JUMP JUMPDEST PUSH2 0xEEB PUSH1 0x20 DUP4 ADD DUP5 PUSH2 0xDC5 JUMP JUMPDEST SWAP4 SWAP3 POP POP POP JUMP JUMPDEST PUSH1 0x0 PUSH1 0x40 DUP3 ADD SWAP1 POP PUSH2 0xF07 PUSH1 0x0 DUP4 ADD DUP6 PUSH2 0xDD4 JUMP JUMPDEST DUP2 DUP2 SUB PUSH1 0x20 DUP4 ADD MSTORE PUSH2 0xF19 DUP2 DUP5 PUSH2 0xDF2 JUMP JUMPDEST SWAP1 POP SWAP4 SWAP3 POP POP POP JUMP JUMPDEST PUSH1 0x0 PUSH1 0xA0 DUP3 ADD SWAP1 POP PUSH2 0xF37 PUSH1 0x0 DUP4 ADD DUP9 PUSH2 0xDE3 JUMP JUMPDEST PUSH2 0xF44 PUSH1 0x20 DUP4 ADD DUP8 PUSH2 0xE8A JUMP JUMPDEST PUSH2 0xF51 PUSH1 0x40 DUP4 ADD DUP7 PUSH2 0xE5D JUMP JUMPDEST PUSH2 0xF5E PUSH1 0x60 DUP4 ADD DUP6 PUSH2 0xE7B JUMP JUMPDEST PUSH2 0xF6B PUSH1 0x80 DUP4 ADD DUP5 PUSH2 0xE7B JUMP JUMPDEST SWAP7 SWAP6 POP POP POP POP POP POP JUMP JUMPDEST PUSH1 0x0 PUSH1 0x20 DUP3 ADD SWAP1 POP PUSH2 0xF8A PUSH1 0x0 DUP4 ADD DUP5 PUSH2 0xE2B JUMP JUMPDEST SWAP3 SWAP2 POP POP JUMP JUMPDEST PUSH1 0x0 PUSH1 0x20 DUP3 ADD SWAP1 POP PUSH2 0xFA5 PUSH1 0x0 DUP4 ADD DUP5 PUSH2 0xE6C JUMP JUMPDEST SWAP3 SWAP2 POP POP JUMP JUMPDEST PUSH1 0x0 PUSH2 0xFB5 PUSH2 0xFC6 JUMP JUMPDEST SWAP1 POP PUSH2 0xFC1 DUP3 DUP3 PUSH2 0x1173 JUMP JUMPDEST SWAP2 SWAP1 POP JUMP JUMPDEST PUSH1 0x0 PUSH1 0x40 MLOAD SWAP1 POP SWAP1 JUMP JUMPDEST PUSH1 0x0 PUSH8 0xFFFFFFFFFFFFFFFF DUP3 GT ISZERO PUSH2 0xFEB JUMPI PUSH2 0xFEA PUSH2 0x1291 JUMP JUMPDEST JUMPDEST PUSH1 0x20 DUP3 MUL SWAP1 POP PUSH1 0x20 DUP2 ADD SWAP1 POP SWAP2 SWAP1 POP JUMP JUMPDEST PUSH1 0x0 PUSH8 0xFFFFFFFFFFFFFFFF DUP3 GT ISZERO PUSH2 0x1017 JUMPI PUSH2 0x1016 PUSH2 0x1291 JUMP JUMPDEST JUMPDEST PUSH2 0x1020 DUP3 PUSH2 0x12DE JUMP JUMPDEST SWAP1 POP PUSH1 0x20 DUP2 ADD SWAP1 POP SWAP2 SWAP1 POP JUMP JUMPDEST PUSH1 0x0 DUP2 MLOAD SWAP1 POP SWAP2 SWAP1 POP JUMP JUMPDEST PUSH1 0x0 DUP3 DUP3 MSTORE PUSH1 0x20 DUP3 ADD SWAP1 POP SWAP3 SWAP2 POP POP JUMP JUMPDEST PUSH1 0x0 DUP2 SWAP1 POP SWAP3 SWAP2 POP POP JUMP JUMPDEST PUSH1 0x0 PUSH2 0x105F DUP3 PUSH2 0x10F1 JUMP JUMPDEST SWAP2 POP PUSH2 0x106A DUP4 PUSH2 0x10F1 JUMP JUMPDEST SWAP3 POP DUP3 DUP3 LT ISZERO PUSH2 0x107D JUMPI PUSH2 0x107C PUSH2 0x11D5 JUMP JUMPDEST JUMPDEST DUP3 DUP3 SUB SWAP1 POP SWAP3 SWAP2 POP POP JUMP JUMPDEST PUSH1 0x0 PUSH2 0x1093 DUP3 PUSH2 0x10D1 JUMP JUMPDEST SWAP1 POP SWAP2 SWAP1 POP JUMP JUMPDEST PUSH1 0x0 DUP2 ISZERO ISZERO SWAP1 POP SWAP2 SWAP1 POP JUMP JUMPDEST PUSH1 0x0 DUP2 SWAP1 POP SWAP2 SWAP1 POP JUMP JUMPDEST PUSH1 0x0 DUP2 SWAP1 POP PUSH2 0x10BE DUP3 PUSH2 0x12F2 JUMP JUMPDEST SWAP2 SWAP1 POP JUMP JUMPDEST PUSH1 0x0 PUSH2 0xFFFF DUP3 AND SWAP1 POP SWAP2 SWAP1 POP JUMP JUMPDEST PUSH1 0x0 PUSH20 0xFFFFFFFFFFFFFFFFFFFFFFFFFFFFFFFFFFFFFFFF DUP3 AND SWAP1 POP SWAP2 SWAP1 POP JUMP JUMPDEST PUSH1 0x0 DUP2 SWAP1 POP SWAP2 SWAP1 POP JUMP JUMPDEST PUSH1 0x0 PUSH4 0xFFFFFFFF DUP3 AND SWAP1 POP SWAP2 SWAP1 POP JUMP JUMPDEST PUSH1 0x0 PUSH8 0xFFFFFFFFFFFFFFFF DUP3 AND SWAP1 POP SWAP2 SWAP1 POP JUMP JUMPDEST PUSH1 0x0 PUSH2 0x112A DUP3 PUSH2 0x10B0 JUMP JUMPDEST SWAP1 POP SWAP2 SWAP1 POP JUMP JUMPDEST DUP3 DUP2 DUP4 CALLDATACOPY PUSH1 0x0 DUP4 DUP4 ADD MSTORE POP POP POP JUMP JUMPDEST PUSH1 0x0 JUMPDEST DUP4 DUP2 LT ISZERO PUSH2 0x115E JUMPI DUP1 DUP3 ADD MLOAD DUP2 DUP5 ADD MSTORE PUSH1 0x20 DUP2 ADD SWAP1 POP PUSH2 0x1143 JUMP JUMPDEST DUP4 DUP2 GT ISZERO PUSH2 0x116D JUMPI PUSH1 0x0 DUP5 DUP5 ADD MSTORE JUMPDEST POP POP POP POP JUMP JUMPDEST PUSH2 0x117C DUP3 PUSH2 0x12DE JUMP JUMPDEST DUP2 ADD DUP2 DUP2 LT PUSH8 0xFFFFFFFFFFFFFFFF DUP3 GT OR ISZERO PUSH2 0x119B JUMPI PUSH2 0x119A PUSH2 0x1291 JUMP JUMPDEST JUMPDEST DUP1 PUSH1 0x40 MSTORE POP POP POP JUMP JUMPDEST PUSH1 0x0 PUSH2 0x11AF DUP3 PUSH2 0x10F1 JUMP JUMPDEST SWAP2 POP PUSH2 0x11BA DUP4 PUSH2 0x10F1 JUMP JUMPDEST SWAP3 POP DUP3 PUSH2 0x11CA JUMPI PUSH2 0x11C9 PUSH2 0x1204 JUMP JUMPDEST JUMPDEST DUP3 DUP3 MOD SWAP1 POP SWAP3 SWAP2 POP POP JUMP JUMPDEST PUSH32 0x4E487B7100000000000000000000000000000000000000000000000000000000 PUSH1 0x0 MSTORE PUSH1 0x11 PUSH1 0x4 MSTORE PUSH1 0x24 PUSH1 0x0 REVERT JUMPDEST PUSH32 0x4E487B7100000000000000000000000000000000000000000000000000000000 PUSH1 0x0 MSTORE PUSH1 0x12 PUSH1 0x4 MSTORE PUSH1 0x24 PUSH1 0x0 REVERT JUMPDEST PUSH32 0x4E487B7100000000000000000000000000000000000000000000000000000000 PUSH1 0x0 MSTORE PUSH1 0x21 PUSH1 0x4 MSTORE PUSH1 0x24 PUSH1 0x0 REVERT JUMPDEST PUSH32 0x4E487B7100000000000000000000000000000000000000000000000000000000 PUSH1 0x0 MSTORE PUSH1 0x32 PUSH1 0x4 MSTORE PUSH1 0x24 PUSH1 0x0 REVERT JUMPDEST PUSH32 0x4E487B7100000000000000000000000000000000000000000000000000000000 PUSH1 0x0 MSTORE PUSH1 0x41 PUSH1 0x4 MSTORE PUSH1 0x24 PUSH1 0x0 REVERT JUMPDEST PUSH1 0x0 DUP1 REVERT JUMPDEST PUSH1 0x0 DUP1 REVERT JUMPDEST PUSH1 0x0 DUP1 REVERT JUMPDEST PUSH1 0x0 DUP1 REVERT JUMPDEST PUSH1 0x0 DUP1 REVERT JUMPDEST PUSH1 0x0 DUP1 REVERT JUMPDEST PUSH1 0x0 PUSH1 0x1F NOT PUSH1 0x1F DUP4 ADD AND SWAP1 POP SWAP2 SWAP1 POP JUMP JUMPDEST POP JUMP JUMPDEST PUSH1 0x2 DUP2 LT PUSH2 0x1303 JUMPI PUSH2 0x1302 PUSH2 0x1233 JUMP JUMPDEST JUMPDEST POP JUMP JUMPDEST PUSH2 0x130F DUP2 PUSH2 0x10F1 JUMP JUMPDEST DUP2 EQ PUSH2 0x131A JUMPI PUSH1 0x0 DUP1 REVERT JUMPDEST POP JUMP INVALID LOG2 PUSH5 0x6970667358 0x22 SLT KECCAK256 DUP1 0xB2 0xC3 0xA6 0xD1 SMOD SWAP1 0x2A 0xCE 0xF9 0xD1 DUP13 0xD0 CALL 0xC1 SWAP9 0xD5 0xA8 NUMBER PUSH14 0xCDBA20AFBC3487A18B9A0416473 PUSH16 0x6C634300080700330000000000000000 "},"gasEstimates":{"creation":{"codeDepositCost":"989400","executionCost":"infinite","totalCost":"infinite"},"external":{"checkUpkeep(bytes)":"infinite","enterRaffle()":"infinite","getEntranceFee()":"infinite","getInterval()":"infinite","getNumWords()":"387","getPlayer(uint256)":"5077","getRaffleState()":"2635","latestWinner()":"2523","performUpkeep(bytes)":"infinite","rawFulfillRandomWords(uint256,uint256[])":"infinite","timeStamp()":"2482"},"internal":{"fulfillRandomWords(uint256,uint256[] memory)":"infinite"}},"methodIdentifiers":{"checkUpkeep(bytes)":"6e04ff0d","enterRaffle()":"2cfcc539","getEntranceFee()":"09bc33a7","getInterval()":"91ad27b4","getNumWords()":"53a2c19a","getPlayer(uint256)":"e55ae4e8","getRaffleState()":"115cbaf5","latestWinner()":"06ef53e0","performUpkeep(bytes)":"4585e33b","rawFulfillRandomWords(uint256,uint256[])":"1fe543e3","timeStamp()":"0ab0df87"}},"storageLayout":{"storage":[{"astId":252,"contract":"contracts/Raffle.sol:Raffle","label":"s_lastTimeStamp","offset":0,"slot":"0","type":"t_uint256"},{"astId":254,"contract":"contracts/Raffle.sol:Raffle","label":"s_recentWinner","offset":0,"slot":"1","type":"t_address"},{"astId":257,"contract":"contracts/Raffle.sol:Raffle","label":"s_players","offset":0,"slot":"2","type":"t_array(t_address)dyn_storage"},{"astId":260,"contract":"contracts/Raffle.sol:Raffle","label":"s_raffleState","offset":0,"slot":"3","type":"t_enum(RaffleState)231"}],"types":{"t_address":{"encoding":"inplace","label":"address","numberOfBytes":"20"},"t_array(t_address)dyn_storage":{"base":"t_address","encoding":"dynamic_array","label":"address[]","numberOfBytes":"32"},"t_enum(RaffleState)231":{"encoding":"inplace","label":"enum Raffle.RaffleState","numberOfBytes":"1"},"t_uint256":{"encoding":"inplace","label":"uint256","numberOfBytes":"32"}}},"userdoc":{"kind":"user","methods":{},"version":1}}}}