{
  "_format": "hh-sol-artifact-1",
  "contractName": "Raffle",
  "sourceName": "contracts/Raffle.sol",
  "abi": [
    {
      "inputs": [
        {
          "internalType": "address",
          "name": "vrfCoordinatorV2",
          "type": "address"
        },
        {
          "internalType": "uint64",
          "name": "subscriptionId",
          "type": "uint64"
        },
        {
          "internalType": "bytes32",
          "name": "gasLane",
          "type": "bytes32"
        },
        {
          "internalType": "uint256",
          "name": "interval",
          "type": "uint256"
        },
        {
          "internalType": "uint256",
          "name": "entrance_fee",
          "type": "uint256"
        },
        {
          "internalType": "uint32",
          "name": "callbackGasLimit",
          "type": "uint32"
        }
      ],
      "stateMutability": "nonpayable",
      "type": "constructor"
    },
    {
      "inputs": [
        {
          "internalType": "address",
          "name": "have",
          "type": "address"
        },
        {
          "internalType": "address",
          "name": "want",
          "type": "address"
        }
      ],
      "name": "OnlyCoordinatorCanFulfill",
      "type": "error"
    },
    {
      "inputs": [],
      "name": "Raffle_StateClosed",
      "type": "error"
    },
    {
      "inputs": [],
      "name": "Raffle__NotEnoughEthEntered",
      "type": "error"
    },
    {
      "inputs": [],
      "name": "Raffle__TransferFailed",
      "type": "error"
    },
    {
      "inputs": [],
      "name": "Raffle__UpkeepNotNeeded",
      "type": "error"
    },
    {
      "anonymous": false,
      "inputs": [
        {
          "indexed": true,
          "internalType": "address",
          "name": "player",
          "type": "address"
        }
      ],
      "name": "RaffleEnter",
      "type": "event"
    },
    {
      "anonymous": false,
      "inputs": [
        {
          "indexed": true,
          "internalType": "uint256",
          "name": "requestId",
          "type": "uint256"
        }
      ],
      "name": "RequestedRaffleWinner",
      "type": "event"
    },
    {
      "anonymous": false,
      "inputs": [
        {
          "indexed": true,
          "internalType": "address",
          "name": "winner",
          "type": "address"
        }
      ],
      "name": "Winner",
      "type": "event"
    },
    {
      "inputs": [
        {
          "internalType": "bytes",
          "name": "",
          "type": "bytes"
        }
      ],
      "name": "checkUpkeep",
      "outputs": [
        {
          "internalType": "bool",
          "name": "upkeepNeeded",
          "type": "bool"
        },
        {
          "internalType": "bytes",
          "name": "",
          "type": "bytes"
        }
      ],
      "stateMutability": "view",
      "type": "function"
    },
    {
      "inputs": [],
      "name": "enterRaffle",
      "outputs": [],
      "stateMutability": "payable",
      "type": "function"
    },
    {
      "inputs": [],
      "name": "getEntranceFee",
      "outputs": [
        {
          "internalType": "uint256",
          "name": "",
          "type": "uint256"
        }
      ],
      "stateMutability": "view",
      "type": "function"
    },
    {
      "inputs": [],
      "name": "getInterval",
      "outputs": [
        {
          "internalType": "uint256",
          "name": "",
          "type": "uint256"
        }
      ],
      "stateMutability": "view",
      "type": "function"
    },
    {
      "inputs": [],
      "name": "getNumWords",
      "outputs": [
        {
          "internalType": "uint256",
          "name": "",
          "type": "uint256"
        }
      ],
      "stateMutability": "pure",
      "type": "function"
    },
    {
      "inputs": [
        {
          "internalType": "uint256",
          "name": "index",
          "type": "uint256"
        }
      ],
      "name": "getPlayer",
      "outputs": [
        {
          "internalType": "address",
          "name": "",
          "type": "address"
        }
      ],
      "stateMutability": "view",
      "type": "function"
    },
    {
      "inputs": [],
      "name": "getRaffleState",
      "outputs": [
        {
          "internalType": "enum Raffle.RaffleState",
          "name": "",
          "type": "uint8"
        }
      ],
      "stateMutability": "view",
      "type": "function"
    },
    {
      "inputs": [],
      "name": "latestWinner",
      "outputs": [
        {
          "internalType": "address",
          "name": "",
          "type": "address"
        }
      ],
      "stateMutability": "view",
      "type": "function"
    },
    {
      "inputs": [
        {
          "internalType": "bytes",
          "name": "",
          "type": "bytes"
        }
      ],
      "name": "performUpkeep",
      "outputs": [],
      "stateMutability": "nonpayable",
      "type": "function"
    },
    {
      "inputs": [
        {
          "internalType": "uint256",
          "name": "requestId",
          "type": "uint256"
        },
        {
          "internalType": "uint256[]",
          "name": "randomWords",
          "type": "uint256[]"
        }
      ],
      "name": "rawFulfillRandomWords",
      "outputs": [],
      "stateMutability": "nonpayable",
      "type": "function"
    },
    {
      "inputs": [],
      "name": "timeStamp",
      "outputs": [
        {
          "internalType": "uint256",
          "name": "",
          "type": "uint256"
        }
      ],
      "stateMutability": "view",
      "type": "function"
    }
  ],
  "bytecode": "0x6101606040523480156200001257600080fd5b506040516200173a3803806200173a8339818101604052810190620000389190620001ad565b858073ffffffffffffffffffffffffffffffffffffffff1660808173ffffffffffffffffffffffffffffffffffffffff1660601b81525050508573ffffffffffffffffffffffffffffffffffffffff1660a08173ffffffffffffffffffffffffffffffffffffffff1660601b815250508360e081815250508261012081815250508467ffffffffffffffff1660c08167ffffffffffffffff1660c01b815250508161014081815250506000600360006101000a81548160ff021916908360018111156200010a5762000109620002b5565b5b0217905550426000819055508063ffffffff166101008163ffffffff1660e01b815250505050505050506200036b565b6000815190506200014b81620002e9565b92915050565b600081519050620001628162000303565b92915050565b60008151905062000179816200031d565b92915050565b600081519050620001908162000337565b92915050565b600081519050620001a78162000351565b92915050565b60008060008060008060c08789031215620001cd57620001cc620002e4565b5b6000620001dd89828a016200013a565b9650506020620001f089828a0162000196565b95505060406200020389828a0162000151565b94505060606200021689828a0162000168565b93505060806200022989828a0162000168565b92505060a06200023c89828a016200017f565b9150509295509295509295565b6000620002568262000267565b9050919050565b6000819050919050565b600073ffffffffffffffffffffffffffffffffffffffff82169050919050565b6000819050919050565b600063ffffffff82169050919050565b600067ffffffffffffffff82169050919050565b7f4e487b7100000000000000000000000000000000000000000000000000000000600052602160045260246000fd5b600080fd5b620002f48162000249565b81146200030057600080fd5b50565b6200030e816200025d565b81146200031a57600080fd5b50565b620003288162000287565b81146200033457600080fd5b50565b620003428162000291565b81146200034e57600080fd5b50565b6200035c81620002a1565b81146200036857600080fd5b50565b60805160601c60a05160601c60c05160c01c60e0516101005160e01c6101205161014051611353620003e7600039600081816102a801526103ae01526000818161074a01526107a50152600061061e015260006105da015260006105fb0152600061059e0152600081816102ee015261034201526113536000f3fe60806040526004361061009c5760003560e01c80632cfcc539116100645780632cfcc539146101765780634585e33b1461018057806353a2c19a146101a95780636e04ff0d146101d457806391ad27b414610212578063e55ae4e81461023d5761009c565b806306ef53e0146100a157806309bc33a7146100cc5780630ab0df87146100f7578063115cbaf5146101225780631fe543e31461014d575b600080fd5b3480156100ad57600080fd5b506100b661027a565b6040516100c39190610eae565b60405180910390f35b3480156100d857600080fd5b506100e16102a4565b6040516100ee9190610f90565b60405180910390f35b34801561010357600080fd5b5061010c6102cc565b6040516101199190610f90565b60405180910390f35b34801561012e57600080fd5b506101376102d5565b6040516101449190610f75565b60405180910390f35b34801561015957600080fd5b50610174600480360381019061016f9190610d69565b6102ec565b005b61017e6103ac565b005b34801561018c57600080fd5b506101a760048036038101906101a29190610c79565b61051b565b005b3480156101b557600080fd5b506101be6106e6565b6040516101cb9190610f90565b60405180910390f35b3480156101e057600080fd5b506101fb60048036038101906101f69190610cc6565b6106f5565b604051610209929190610ef2565b60405180910390f35b34801561021e57600080fd5b506102276107a1565b6040516102349190610f90565b60405180910390f35b34801561024957600080fd5b50610264600480360381019061025f9190610d0f565b6107c9565b6040516102719190610eae565b60405180910390f35b6000600160009054906101000a900473ffffffffffffffffffffffffffffffffffffffff16905090565b60007f0000000000000000000000000000000000000000000000000000000000000000905090565b60008054905090565b6000600360009054906101000a900460ff16905090565b7f000000000000000000000000000000000000000000000000000000000000000073ffffffffffffffffffffffffffffffffffffffff163373ffffffffffffffffffffffffffffffffffffffff161461039e57337f00000000000000000000000000000000000000000000000000000000000000006040517f1cf993f4000000000000000000000000000000000000000000000000000000008152600401610395929190610ec9565b60405180910390fd5b6103a88282610811565b5050565b7f0000000000000000000000000000000000000000000000000000000000000000341015610406576040517f066d781f00000000000000000000000000000000000000000000000000000000815260040160405180910390fd5b60018081111561041957610418611233565b5b600360009054906101000a900460ff16600181111561043b5761043a611233565b5b1415610473576040517f4ce762b400000000000000000000000000000000000000000000000000000000815260040160405180910390fd5b6002339080600181540180825580915050600190039060005260206000200160009091909190916101000a81548173ffffffffffffffffffffffffffffffffffffffff021916908373ffffffffffffffffffffffffffffffffffffffff1602179055503373ffffffffffffffffffffffffffffffffffffffff167f0805e1d667bddb8a95f0f09880cf94f403fb596ce79928d9f29b74203ba284d460405160405180910390a2565b6000610535604051806020016040528060008152506106f5565b5090508061056f576040517f8e4bc81700000000000000000000000000000000000000000000000000000000815260040160405180910390fd5b6001600360006101000a81548160ff0219169083600181111561059557610594611233565b5b021790555060007f000000000000000000000000000000000000000000000000000000000000000073ffffffffffffffffffffffffffffffffffffffff16635d3b1d307f00000000000000000000000000000000000000000000000000000000000000007f000000000000000000000000000000000000000000000000000000000000000060037f000000000000000000000000000000000000000000000000000000000000000060016040518663ffffffff1660e01b815260040161065f959493929190610f22565b602060405180830381600087803b15801561067957600080fd5b505af115801561068d573d6000803e3d6000fd5b505050506040513d601f19601f820116820180604052508101906106b19190610d3c565b9050807fcd6e45c8998311cab7e9d4385596cac867e20a0587194b954fa3a731c93ce78b60405160405180910390a250505050565b6000600163ffffffff16905090565b60006060600080600181111561070e5761070d611233565b5b600360009054906101000a900460ff1660018111156107305761072f611233565b5b1490506000806002805490501190506000804711905060007f0000000000000000000000000000000000000000000000000000000000000000600054426107779190611054565b1190508380156107845750825b801561078d5750815b80156107965750805b955050505050915091565b60007f0000000000000000000000000000000000000000000000000000000000000000905090565b6000600282815481106107df576107de611262565b5b9060005260206000200160009054906101000a900473ffffffffffffffffffffffffffffffffffffffff169050919050565b60006002805490508260008151811061082d5761082c611262565b5b602002602001015161083f91906111a4565b905060006002828154811061085757610856611262565b5b9060005260206000200160009054906101000a900473ffffffffffffffffffffffffffffffffffffffff16905080600160006101000a81548173ffffffffffffffffffffffffffffffffffffffff021916908373ffffffffffffffffffffffffffffffffffffffff1602179055506000600360006101000a81548160ff021916908360018111156108eb576108ea611233565b5b0217905550600067ffffffffffffffff81111561090b5761090a611291565b5b6040519080825280602002602001820160405280156109395781602001602082028036833780820191505090505b506002908051906020019061094f929190610a44565b504260008190555060008173ffffffffffffffffffffffffffffffffffffffff164760405161097d90610e99565b60006040518083038185875af1925050503d80600081146109ba576040519150601f19603f3d011682016040523d82523d6000602084013e6109bf565b606091505b50509050806109fa576040517fa1d04b3900000000000000000000000000000000000000000000000000000000815260040160405180910390fd5b8173ffffffffffffffffffffffffffffffffffffffff167f745c90b656b4aafe296c8ca35aeacfe56cb96c90e1d320e5da643fff1051b6c060405160405180910390a25050505050565b828054828255906000526020600020908101928215610abd579160200282015b82811115610abc5782518260006101000a81548173ffffffffffffffffffffffffffffffffffffffff021916908373ffffffffffffffffffffffffffffffffffffffff16021790555091602001919060010190610a64565b5b509050610aca9190610ace565b5090565b5b80821115610ae7576000816000905550600101610acf565b5090565b6000610afe610af984610fd0565b610fab565b90508083825260208201905082856020860282011115610b2157610b206112ca565b5b60005b85811015610b515781610b378882610c4f565b845260208401935060208301925050600181019050610b24565b5050509392505050565b6000610b6e610b6984610ffc565b610fab565b905082815260208101848484011115610b8a57610b896112cf565b5b610b95848285611131565b509392505050565b600082601f830112610bb257610bb16112c5565b5b8135610bc2848260208601610aeb565b91505092915050565b60008083601f840112610be157610be06112c5565b5b8235905067ffffffffffffffff811115610bfe57610bfd6112c0565b5b602083019150836001820283011115610c1a57610c196112ca565b5b9250929050565b600082601f830112610c3657610c356112c5565b5b8135610c46848260208601610b5b565b91505092915050565b600081359050610c5e81611306565b92915050565b600081519050610c7381611306565b92915050565b60008060208385031215610c9057610c8f6112d9565b5b600083013567ffffffffffffffff811115610cae57610cad6112d4565b5b610cba85828601610bcb565b92509250509250929050565b600060208284031215610cdc57610cdb6112d9565b5b600082013567ffffffffffffffff811115610cfa57610cf96112d4565b5b610d0684828501610c21565b91505092915050565b600060208284031215610d2557610d246112d9565b5b6000610d3384828501610c4f565b91505092915050565b600060208284031215610d5257610d516112d9565b5b6000610d6084828501610c64565b91505092915050565b60008060408385031215610d8057610d7f6112d9565b5b6000610d8e85828601610c4f565b925050602083013567ffffffffffffffff811115610daf57610dae6112d4565b5b610dbb85828601610b9d565b9150509250929050565b610dce81611088565b82525050565b610ddd8161109a565b82525050565b610dec816110a6565b82525050565b6000610dfd8261102d565b610e078185611038565b9350610e17818560208601611140565b610e20816112de565b840191505092915050565b610e348161111f565b82525050565b6000610e47600083611049565b9150610e52826112ef565b600082019050919050565b610e66816110c3565b82525050565b610e75816110f1565b82525050565b610e84816110fb565b82525050565b610e938161110b565b82525050565b6000610ea482610e3a565b9150819050919050565b6000602082019050610ec36000830184610dc5565b92915050565b6000604082019050610ede6000830185610dc5565b610eeb6020830184610dc5565b9392505050565b6000604082019050610f076000830185610dd4565b8181036020830152610f198184610df2565b90509392505050565b600060a082019050610f376000830188610de3565b610f446020830187610e8a565b610f516040830186610e5d565b610f5e6060830185610e7b565b610f6b6080830184610e7b565b9695505050505050565b6000602082019050610f8a6000830184610e2b565b92915050565b6000602082019050610fa56000830184610e6c565b92915050565b6000610fb5610fc6565b9050610fc18282611173565b919050565b6000604051905090565b600067ffffffffffffffff821115610feb57610fea611291565b5b602082029050602081019050919050565b600067ffffffffffffffff82111561101757611016611291565b5b611020826112de565b9050602081019050919050565b600081519050919050565b600082825260208201905092915050565b600081905092915050565b600061105f826110f1565b915061106a836110f1565b92508282101561107d5761107c6111d5565b5b828203905092915050565b6000611093826110d1565b9050919050565b60008115159050919050565b6000819050919050565b60008190506110be826112f2565b919050565b600061ffff82169050919050565b600073ffffffffffffffffffffffffffffffffffffffff82169050919050565b6000819050919050565b600063ffffffff82169050919050565b600067ffffffffffffffff82169050919050565b600061112a826110b0565b9050919050565b82818337600083830152505050565b60005b8381101561115e578082015181840152602081019050611143565b8381111561116d576000848401525b50505050565b61117c826112de565b810181811067ffffffffffffffff8211171561119b5761119a611291565b5b80604052505050565b60006111af826110f1565b91506111ba836110f1565b9250826111ca576111c9611204565b5b828206905092915050565b7f4e487b7100000000000000000000000000000000000000000000000000000000600052601160045260246000fd5b7f4e487b7100000000000000000000000000000000000000000000000000000000600052601260045260246000fd5b7f4e487b7100000000000000000000000000000000000000000000000000000000600052602160045260246000fd5b7f4e487b7100000000000000000000000000000000000000000000000000000000600052603260045260246000fd5b7f4e487b7100000000000000000000000000000000000000000000000000000000600052604160045260246000fd5b600080fd5b600080fd5b600080fd5b600080fd5b600080fd5b600080fd5b6000601f19601f8301169050919050565b50565b6002811061130357611302611233565b5b50565b61130f816110f1565b811461131a57600080fd5b5056fea264697066735822122032e0fe9c8c1d1d604155f8c6244f488469fc3b347f2472338f80d865fd0ae67c64736f6c63430008070033",
  "linkReferences": {},
  "deployedLinkReferences": {}
}